{
  "_format": "hh-sol-artifact-1",
  "contractName": "DiasporaConnect",
  "sourceName": "contracts/DiasporaConnect.sol",
  "abi": [
    {
      "inputs": [],
      "stateMutability": "nonpayable",
      "type": "constructor"
    },
    {
      "anonymous": false,
      "inputs": [
        {
          "indexed": true,
          "internalType": "address",
          "name": "node",
          "type": "address"
        }
      ],
      "name": "NodeAuthorized",
      "type": "event"
    },
    {
      "anonymous": false,
      "inputs": [
        {
          "indexed": true,
          "internalType": "address",
          "name": "node",
          "type": "address"
        }
      ],
      "name": "NodeRevoked",
      "type": "event"
    },
    {
      "anonymous": false,
      "inputs": [
        {
          "indexed": true,
          "internalType": "bytes32",
          "name": "transferId",
          "type": "bytes32"
        },
        {
          "indexed": true,
          "internalType": "address",
          "name": "sender",
          "type": "address"
        },
        {
          "indexed": false,
          "internalType": "string",
          "name": "recipientPhone",
          "type": "string"
        },
        {
          "indexed": false,
          "internalType": "string",
          "name": "operator",
          "type": "string"
        },
        {
          "indexed": false,
          "internalType": "uint256",
          "name": "amount",
          "type": "uint256"
        }
      ],
      "name": "TransferCreated",
      "type": "event"
    },
    {
      "anonymous": false,
      "inputs": [
        {
          "indexed": true,
          "internalType": "bytes32",
          "name": "transferId",
          "type": "bytes32"
        },
        {
          "indexed": true,
          "internalType": "address",
          "name": "sender",
          "type": "address"
        },
        {
          "indexed": false,
          "internalType": "uint256",
          "name": "amount",
          "type": "uint256"
        }
      ],
      "name": "TransferRefunded",
      "type": "event"
    },
    {
      "anonymous": false,
      "inputs": [
        {
          "indexed": true,
          "internalType": "bytes32",
          "name": "transferId",
          "type": "bytes32"
        },
        {
          "indexed": false,
          "internalType": "address",
          "name": "recipientNode",
          "type": "address"
        },
        {
          "indexed": false,
          "internalType": "uint256",
          "name": "amount",
          "type": "uint256"
        }
      ],
      "name": "TransferReleased",
      "type": "event"
    },
    {
      "inputs": [],
      "name": "CUSD_ADDRESS",
      "outputs": [
        {
          "internalType": "address",
          "name": "",
          "type": "address"
        }
      ],
      "stateMutability": "view",
      "type": "function"
    },
    {
      "inputs": [
        {
          "internalType": "address",
          "name": "_node",
          "type": "address"
        }
      ],
      "name": "authorizeNode",
      "outputs": [],
      "stateMutability": "nonpayable",
      "type": "function"
    },
    {
      "inputs": [
        {
          "internalType": "address",
          "name": "",
          "type": "address"
        }
      ],
      "name": "authorizedNodes",
      "outputs": [
        {
          "internalType": "bool",
          "name": "",
          "type": "bool"
        }
      ],
      "stateMutability": "view",
      "type": "function"
    },
    {
      "inputs": [
        {
          "internalType": "string",
          "name": "_recipientPhone",
          "type": "string"
        },
        {
          "internalType": "string",
          "name": "_operator",
          "type": "string"
        },
        {
          "internalType": "uint256",
          "name": "_amount",
          "type": "uint256"
        }
      ],
      "name": "deposit",
      "outputs": [
        {
          "internalType": "bytes32",
          "name": "",
          "type": "bytes32"
        }
      ],
      "stateMutability": "nonpayable",
      "type": "function"
    },
    {
      "inputs": [
        {
          "internalType": "bytes32",
          "name": "_transferId",
          "type": "bytes32"
        }
      ],
      "name": "getTransfer",
      "outputs": [
        {
          "internalType": "address",
          "name": "sender",
          "type": "address"
        },
        {
          "internalType": "string",
          "name": "recipientPhone",
          "type": "string"
        },
        {
          "internalType": "string",
          "name": "operator",
          "type": "string"
        },
        {
          "internalType": "uint256",
          "name": "amount",
          "type": "uint256"
        },
        {
          "internalType": "uint256",
          "name": "createdAt",
          "type": "uint256"
        },
        {
          "internalType": "enum DiasporaConnect.TransferStatus",
          "name": "status",
          "type": "uint8"
        }
      ],
      "stateMutability": "view",
      "type": "function"
    },
    {
      "inputs": [],
      "name": "owner",
      "outputs": [
        {
          "internalType": "address",
          "name": "",
          "type": "address"
        }
      ],
      "stateMutability": "view",
      "type": "function"
    },
    {
      "inputs": [
        {
          "internalType": "bytes32",
          "name": "_transferId",
          "type": "bytes32"
        }
      ],
      "name": "refund",
      "outputs": [],
      "stateMutability": "nonpayable",
      "type": "function"
    },
    {
      "inputs": [
        {
          "internalType": "bytes32",
          "name": "_transferId",
          "type": "bytes32"
        },
        {
          "internalType": "address",
          "name": "_nodeAddress",
          "type": "address"
        }
      ],
      "name": "release",
      "outputs": [],
      "stateMutability": "nonpayable",
      "type": "function"
    },
    {
      "inputs": [
        {
          "internalType": "address",
          "name": "_node",
          "type": "address"
        }
      ],
      "name": "revokeNode",
      "outputs": [],
      "stateMutability": "nonpayable",
      "type": "function"
    },
    {
      "inputs": [
        {
          "internalType": "bytes32",
          "name": "",
          "type": "bytes32"
        }
      ],
      "name": "transfers",
      "outputs": [
        {
          "internalType": "address",
          "name": "sender",
          "type": "address"
        },
        {
          "internalType": "string",
          "name": "recipientPhone",
          "type": "string"
        },
        {
          "internalType": "string",
          "name": "operator",
          "type": "string"
        },
        {
          "internalType": "uint256",
          "name": "amount",
          "type": "uint256"
        },
        {
          "internalType": "uint256",
          "name": "createdAt",
          "type": "uint256"
        },
        {
          "internalType": "enum DiasporaConnect.TransferStatus",
          "name": "status",
          "type": "uint8"
        }
      ],
      "stateMutability": "view",
      "type": "function"
    }
  ],
  "bytecode": "0x608060405234801561001057600080fd5b5033600260006101000a81548173ffffffffffffffffffffffffffffffffffffffff021916908373ffffffffffffffffffffffffffffffffffffffff16021790555060018060003373ffffffffffffffffffffffffffffffffffffffff1673ffffffffffffffffffffffffffffffffffffffff16815260200190815260200160002060006101000a81548160ff021916908315150217905550612257806100b86000396000f3fe608060405234801561001057600080fd5b506004361061009e5760003560e01c80637249fbb6116100665780637249fbb6146101775780637e53a740146101935780638da5cb5b146101c3578063acc72bc6146101e1578063b76a8bd2146101fd5761009e565b80631bbdcfd3146100a3578063222ac055146100bf578063260958a5146100ef5780633c64f04b14610124578063465c66e914610159575b600080fd5b6100bd60048036038101906100b89190611388565b610219565b005b6100d960048036038101906100d49190611544565b610517565b6040516100e691906115de565b60405180910390f35b610109600480360381019061010491906115f9565b6108c1565b60405161011b9695949392919061173a565b60405180910390f35b61013e600480360381019061013991906115f9565b610ae8565b6040516101509695949392919061173a565b60405180910390f35b610161610c61565b60405161016e91906117a9565b60405180910390f35b610191600480360381019061018c91906115f9565b610c79565b005b6101ad60048036038101906101a891906117c4565b61103f565b6040516101ba919061180c565b60405180910390f35b6101cb61105f565b6040516101d891906117a9565b60405180910390f35b6101fb60048036038101906101f691906117c4565b611085565b005b610217600480360381019061021291906117c4565b6111b2565b005b600160003373ffffffffffffffffffffffffffffffffffffffff1673ffffffffffffffffffffffffffffffffffffffff16815260200190815260200160002060009054906101000a900460ff16806102be5750600260009054906101000a900473ffffffffffffffffffffffffffffffffffffffff1673ffffffffffffffffffffffffffffffffffffffff163373ffffffffffffffffffffffffffffffffffffffff16145b6102fd576040517f08c379a00000000000000000000000000000000000000000000000000000000081526004016102f490611873565b60405180910390fd5b6000806000848152602001908152602001600020905060006002811115610327576103266116c3565b5b8160050160009054906101000a900460ff16600281111561034b5761034a6116c3565b5b1461038b576040517f08c379a0000000000000000000000000000000000000000000000000000000008152600401610382906118df565b60405180910390fd5b60008160030154116103d2576040517f08c379a00000000000000000000000000000000000000000000000000000000081526004016103c99061194b565b60405180910390fd5b60018160050160006101000a81548160ff021916908360028111156103fa576103f96116c3565b5b021790555073874069fa1eb16d44d622f2e0ca25eea172369bc173ffffffffffffffffffffffffffffffffffffffff1663a9059cbb8383600301546040518363ffffffff1660e01b815260040161045292919061196b565b6020604051808303816000875af1158015610471573d6000803e3d6000fd5b505050506040513d601f19601f8201168201806040525081019061049591906119c0565b6104d4576040517f08c379a00000000000000000000000000000000000000000000000000000000081526004016104cb90611a39565b60405180910390fd5b827fd8a6181e19f62dc59876592bc8e07da497d900f46426a3462b2fc3a1507c4a6383836003015460405161050a92919061196b565b60405180910390a2505050565b60008084511161055c576040517f08c379a000000000000000000000000000000000000000000000000000000000815260040161055390611aa5565b60405180910390fd5b60008351116105a0576040517f08c379a000000000000000000000000000000000000000000000000000000000815260040161059790611b11565b60405180910390fd5b600082116105e3576040517f08c379a00000000000000000000000000000000000000000000000000000000081526004016105da90611b7d565b60405180910390fd5b600033858585426040516020016105fe959493929190611c42565b6040516020818303038152906040528051906020012090506000806000838152602001908152602001600020600401541461066e576040517f08c379a000000000000000000000000000000000000000000000000000000000815260040161066590611ce5565b60405180910390fd5b73874069fa1eb16d44d622f2e0ca25eea172369bc173ffffffffffffffffffffffffffffffffffffffff166323b872dd3330866040518463ffffffff1660e01b81526004016106bf93929190611d05565b6020604051808303816000875af11580156106de573d6000803e3d6000fd5b505050506040513d601f19601f8201168201806040525081019061070291906119c0565b610741576040517f08c379a000000000000000000000000000000000000000000000000000000000815260040161073890611a39565b60405180910390fd5b6040518060c001604052803373ffffffffffffffffffffffffffffffffffffffff16815260200186815260200185815260200184815260200142815260200160006002811115610794576107936116c3565b5b81525060008083815260200190815260200160002060008201518160000160006101000a81548173ffffffffffffffffffffffffffffffffffffffff021916908373ffffffffffffffffffffffffffffffffffffffff16021790555060208201518160010190816108059190611f48565b50604082015181600201908161081b9190611f48565b50606082015181600301556080820151816004015560a08201518160050160006101000a81548160ff0219169083600281111561085b5761085a6116c3565b5b02179055509050503373ffffffffffffffffffffffffffffffffffffffff16817f4077839ab9fab92e8cf399981afd698c4815b07aaf2ab12b09fc076be0fda7bb8787876040516108ae9392919061201a565b60405180910390a3809150509392505050565b60006060806000806000806000808981526020019081526020016000206040518060c00160405290816000820160009054906101000a900473ffffffffffffffffffffffffffffffffffffffff1673ffffffffffffffffffffffffffffffffffffffff1673ffffffffffffffffffffffffffffffffffffffff16815260200160018201805461094f90611d6b565b80601f016020809104026020016040519081016040528092919081815260200182805461097b90611d6b565b80156109c85780601f1061099d576101008083540402835291602001916109c8565b820191906000526020600020905b8154815290600101906020018083116109ab57829003601f168201915b505050505081526020016002820180546109e190611d6b565b80601f0160208091040260200160405190810160405280929190818152602001828054610a0d90611d6b565b8015610a5a5780601f10610a2f57610100808354040283529160200191610a5a565b820191906000526020600020905b815481529060010190602001808311610a3d57829003601f168201915b5050505050815260200160038201548152602001600482015481526020016005820160009054906101000a900460ff166002811115610a9c57610a9b6116c3565b5b6002811115610aae57610aad6116c3565b5b815250509050806000015181602001518260400151836060015184608001518560a001519650965096509650965096505091939550919395565b60006020528060005260406000206000915090508060000160009054906101000a900473ffffffffffffffffffffffffffffffffffffffff1690806001018054610b3190611d6b565b80601f0160208091040260200160405190810160405280929190818152602001828054610b5d90611d6b565b8015610baa5780601f10610b7f57610100808354040283529160200191610baa565b820191906000526020600020905b815481529060010190602001808311610b8d57829003601f168201915b505050505090806002018054610bbf90611d6b565b80601f0160208091040260200160405190810160405280929190818152602001828054610beb90611d6b565b8015610c385780601f10610c0d57610100808354040283529160200191610c38565b820191906000526020600020905b815481529060010190602001808311610c1b57829003601f168201915b5050505050908060030154908060040154908060050160009054906101000a900460ff16905086565b73874069fa1eb16d44d622f2e0ca25eea172369bc181565b6000806000838152602001908152602001600020905060006002811115610ca357610ca26116c3565b5b8160050160009054906101000a900460ff166002811115610cc757610cc66116c3565b5b14610d07576040517f08c379a0000000000000000000000000000000000000000000000000000000008152600401610cfe906118df565b60405180910390fd5b8060000160009054906101000a900473ffffffffffffffffffffffffffffffffffffffff1673ffffffffffffffffffffffffffffffffffffffff163373ffffffffffffffffffffffffffffffffffffffff161480610db25750600260009054906101000a900473ffffffffffffffffffffffffffffffffffffffff1673ffffffffffffffffffffffffffffffffffffffff163373ffffffffffffffffffffffffffffffffffffffff16145b610df1576040517f08c379a0000000000000000000000000000000000000000000000000000000008152600401610de8906120ab565b60405180910390fd5b6203f4808160040154610e0491906120fa565b42101580610e5f5750600260009054906101000a900473ffffffffffffffffffffffffffffffffffffffff1673ffffffffffffffffffffffffffffffffffffffff163373ffffffffffffffffffffffffffffffffffffffff16145b610e9e576040517f08c379a0000000000000000000000000000000000000000000000000000000008152600401610e959061217a565b60405180910390fd5b60028160050160006101000a81548160ff02191690836002811115610ec657610ec56116c3565b5b021790555073874069fa1eb16d44d622f2e0ca25eea172369bc173ffffffffffffffffffffffffffffffffffffffff1663a9059cbb8260000160009054906101000a900473ffffffffffffffffffffffffffffffffffffffff1683600301546040518363ffffffff1660e01b8152600401610f4292919061196b565b6020604051808303816000875af1158015610f61573d6000803e3d6000fd5b505050506040513d601f19601f82011682018060405250810190610f8591906119c0565b610fc4576040517f08c379a0000000000000000000000000000000000000000000000000000000008152600401610fbb90611a39565b60405180910390fd5b8060000160009054906101000a900473ffffffffffffffffffffffffffffffffffffffff1673ffffffffffffffffffffffffffffffffffffffff16827f04f52f70a574c3facc8188d13efa4536b1ab3b9571e5ed36201886191c4686ce8360030154604051611033919061219a565b60405180910390a35050565b60016020528060005260406000206000915054906101000a900460ff1681565b600260009054906101000a900473ffffffffffffffffffffffffffffffffffffffff1681565b600260009054906101000a900473ffffffffffffffffffffffffffffffffffffffff1673ffffffffffffffffffffffffffffffffffffffff163373ffffffffffffffffffffffffffffffffffffffff1614611115576040517f08c379a000000000000000000000000000000000000000000000000000000000815260040161110c90612201565b60405180910390fd5b60018060008373ffffffffffffffffffffffffffffffffffffffff1673ffffffffffffffffffffffffffffffffffffffff16815260200190815260200160002060006101000a81548160ff0219169083151502179055508073ffffffffffffffffffffffffffffffffffffffff167f8638f01ed0471fe5cd807bb572bf42f715a4a2064a2c643b9d78bad2b95ec86f60405160405180910390a250565b600260009054906101000a900473ffffffffffffffffffffffffffffffffffffffff1673ffffffffffffffffffffffffffffffffffffffff163373ffffffffffffffffffffffffffffffffffffffff1614611242576040517f08c379a000000000000000000000000000000000000000000000000000000000815260040161123990612201565b60405180910390fd5b6000600160008373ffffffffffffffffffffffffffffffffffffffff1673ffffffffffffffffffffffffffffffffffffffff16815260200190815260200160002060006101000a81548160ff0219169083151502179055508073ffffffffffffffffffffffffffffffffffffffff167f1ed1124975b36f977f88e26d9688d6772db1efc746521b431543fa5bc7e7d4a060405160405180910390a250565b6000604051905090565b600080fd5b600080fd5b6000819050919050565b611307816112f4565b811461131257600080fd5b50565b600081359050611324816112fe565b92915050565b600073ffffffffffffffffffffffffffffffffffffffff82169050919050565b60006113558261132a565b9050919050565b6113658161134a565b811461137057600080fd5b50565b6000813590506113828161135c565b92915050565b6000806040838503121561139f5761139e6112ea565b5b60006113ad85828601611315565b92505060206113be85828601611373565b9150509250929050565b600080fd5b600080fd5b6000601f19601f8301169050919050565b7f4e487b7100000000000000000000000000000000000000000000000000000000600052604160045260246000fd5b61141b826113d2565b810181811067ffffffffffffffff8211171561143a576114396113e3565b5b80604052505050565b600061144d6112e0565b90506114598282611412565b919050565b600067ffffffffffffffff821115611479576114786113e3565b5b611482826113d2565b9050602081019050919050565b82818337600083830152505050565b60006114b16114ac8461145e565b611443565b9050828152602081018484840111156114cd576114cc6113cd565b5b6114d884828561148f565b509392505050565b600082601f8301126114f5576114f46113c8565b5b813561150584826020860161149e565b91505092915050565b6000819050919050565b6115218161150e565b811461152c57600080fd5b50565b60008135905061153e81611518565b92915050565b60008060006060848603121561155d5761155c6112ea565b5b600084013567ffffffffffffffff81111561157b5761157a6112ef565b5b611587868287016114e0565b935050602084013567ffffffffffffffff8111156115a8576115a76112ef565b5b6115b4868287016114e0565b92505060406115c58682870161152f565b9150509250925092565b6115d8816112f4565b82525050565b60006020820190506115f360008301846115cf565b92915050565b60006020828403121561160f5761160e6112ea565b5b600061161d84828501611315565b91505092915050565b61162f8161134a565b82525050565b600081519050919050565b600082825260208201905092915050565b60005b8381101561166f578082015181840152602081019050611654565b60008484015250505050565b600061168682611635565b6116908185611640565b93506116a0818560208601611651565b6116a9816113d2565b840191505092915050565b6116bd8161150e565b82525050565b7f4e487b7100000000000000000000000000000000000000000000000000000000600052602160045260246000fd5b60038110611703576117026116c3565b5b50565b6000819050611714826116f2565b919050565b600061172482611706565b9050919050565b61173481611719565b82525050565b600060c08201905061174f6000830189611626565b8181036020830152611761818861167b565b90508181036040830152611775818761167b565b905061178460608301866116b4565b61179160808301856116b4565b61179e60a083018461172b565b979650505050505050565b60006020820190506117be6000830184611626565b92915050565b6000602082840312156117da576117d96112ea565b5b60006117e884828501611373565b91505092915050565b60008115159050919050565b611806816117f1565b82525050565b600060208201905061182160008301846117fd565b92915050565b7f4e6f7420617574686f72697a6564000000000000000000000000000000000000600082015250565b600061185d600e83611640565b915061186882611827565b602082019050919050565b6000602082019050818103600083015261188c81611850565b9050919050565b7f4e6f74206c6f636b656400000000000000000000000000000000000000000000600082015250565b60006118c9600a83611640565b91506118d482611893565b602082019050919050565b600060208201905081810360008301526118f8816118bc565b9050919050565b7f5472616e7366657220646f6573206e6f74206578697374000000000000000000600082015250565b6000611935601783611640565b9150611940826118ff565b602082019050919050565b6000602082019050818103600083015261196481611928565b9050919050565b60006040820190506119806000830185611626565b61198d60208301846116b4565b9392505050565b61199d816117f1565b81146119a857600080fd5b50565b6000815190506119ba81611994565b92915050565b6000602082840312156119d6576119d56112ea565b5b60006119e4848285016119ab565b91505092915050565b7f63555344207472616e73666572206661696c6564000000000000000000000000600082015250565b6000611a23601483611640565b9150611a2e826119ed565b602082019050919050565b60006020820190508181036000830152611a5281611a16565b9050919050565b7f50686f6e65207265717569726564000000000000000000000000000000000000600082015250565b6000611a8f600e83611640565b9150611a9a82611a59565b602082019050919050565b60006020820190508181036000830152611abe81611a82565b9050919050565b7f4f70657261746f72207265717569726564000000000000000000000000000000600082015250565b6000611afb601183611640565b9150611b0682611ac5565b602082019050919050565b60006020820190508181036000830152611b2a81611aee565b9050919050565b7f416d6f756e74206d757374206265203e20300000000000000000000000000000600082015250565b6000611b67601283611640565b9150611b7282611b31565b602082019050919050565b60006020820190508181036000830152611b9681611b5a565b9050919050565b60008160601b9050919050565b6000611bb582611b9d565b9050919050565b6000611bc782611baa565b9050919050565b611bdf611bda8261134a565b611bbc565b82525050565b600081905092915050565b6000611bfb82611635565b611c058185611be5565b9350611c15818560208601611651565b80840191505092915050565b6000819050919050565b611c3c611c378261150e565b611c21565b82525050565b6000611c4e8288611bce565b601482019150611c5e8287611bf0565b9150611c6a8286611bf0565b9150611c768285611c2b565b602082019150611c868284611c2b565b6020820191508190509695505050505050565b7f5472616e7366657220616c726561647920657869737473000000000000000000600082015250565b6000611ccf601783611640565b9150611cda82611c99565b602082019050919050565b60006020820190508181036000830152611cfe81611cc2565b9050919050565b6000606082019050611d1a6000830186611626565b611d276020830185611626565b611d3460408301846116b4565b949350505050565b7f4e487b7100000000000000000000000000000000000000000000000000000000600052602260045260246000fd5b60006002820490506001821680611d8357607f821691505b602082108103611d9657611d95611d3c565b5b50919050565b60008190508160005260206000209050919050565b60006020601f8301049050919050565b600082821b905092915050565b600060088302611dfe7fffffffffffffffffffffffffffffffffffffffffffffffffffffffffffffffff82611dc1565b611e088683611dc1565b95508019841693508086168417925050509392505050565b6000819050919050565b6000611e45611e40611e3b8461150e565b611e20565b61150e565b9050919050565b6000819050919050565b611e5f83611e2a565b611e73611e6b82611e4c565b848454611dce565b825550505050565b600090565b611e88611e7b565b611e93818484611e56565b505050565b5b81811015611eb757611eac600082611e80565b600181019050611e99565b5050565b601f821115611efc57611ecd81611d9c565b611ed684611db1565b81016020851015611ee5578190505b611ef9611ef185611db1565b830182611e98565b50505b505050565b600082821c905092915050565b6000611f1f60001984600802611f01565b1980831691505092915050565b6000611f388383611f0e565b9150826002028217905092915050565b611f5182611635565b67ffffffffffffffff811115611f6a57611f696113e3565b5b611f748254611d6b565b611f7f828285611ebb565b600060209050601f831160018114611fb25760008415611fa0578287015190505b611faa8582611f2c565b865550612012565b601f198416611fc086611d9c565b60005b82811015611fe857848901518255600182019150602085019450602081019050611fc3565b868310156120055784890151612001601f891682611f0e565b8355505b6001600288020188555050505b505050505050565b60006060820190508181036000830152612034818661167b565b90508181036020830152612048818561167b565b905061205760408301846116b4565b949350505050565b7f4f6e6c792073656e646572206f72206f776e6572000000000000000000000000600082015250565b6000612095601483611640565b91506120a08261205f565b602082019050919050565b600060208201905081810360008301526120c481612088565b9050919050565b7f4e487b7100000000000000000000000000000000000000000000000000000000600052601160045260246000fd5b60006121058261150e565b91506121108361150e565b9250828201905080821115612128576121276120cb565b5b92915050565b7f4d757374207761697420373268206f72206265206f776e657200000000000000600082015250565b6000612164601983611640565b915061216f8261212e565b602082019050919050565b6000602082019050818103600083015261219381612157565b9050919050565b60006020820190506121af60008301846116b4565b92915050565b7f4f6e6c79206f776e657200000000000000000000000000000000000000000000600082015250565b60006121eb600a83611640565b91506121f6826121b5565b602082019050919050565b6000602082019050818103600083015261221a816121de565b905091905056fea26469706673582212208489834143eb1440b39a703f763aa5ed5aef38815f8d3f230bee94b3627e22b164736f6c63430008130033",
  "linkReferences": {},
  "deployedLinkReferences": {}
}